{
  "_format": "hh-sol-artifact-1",
  "contractName": "QuestChain",
  "sourceName": "contracts/QuestChain.sol",
  "abi": [
    {
      "inputs": [],
      "stateMutability": "nonpayable",
      "type": "constructor"
    },
    {
      "anonymous": false,
      "inputs": [
        {
          "indexed": false,
          "internalType": "uint8",
          "name": "version",
          "type": "uint8"
        }
      ],
      "name": "Initialized",
      "type": "event"
    },
    {
      "anonymous": false,
      "inputs": [
        {
          "indexed": false,
          "internalType": "address",
          "name": "account",
          "type": "address"
        }
      ],
      "name": "Paused",
      "type": "event"
    },
    {
      "anonymous": false,
      "inputs": [
        {
          "indexed": false,
          "internalType": "address",
          "name": "editor",
          "type": "address"
        },
        {
          "indexed": false,
          "internalType": "string",
          "name": "details",
          "type": "string"
        }
      ],
      "name": "QuestChainEdited",
      "type": "event"
    },
    {
      "anonymous": false,
      "inputs": [
        {
          "indexed": false,
          "internalType": "string",
          "name": "details",
          "type": "string"
        },
        {
          "indexed": false,
          "internalType": "string[]",
          "name": "quests",
          "type": "string[]"
        },
        {
          "indexed": false,
          "internalType": "bool",
          "name": "paused",
          "type": "bool"
        }
      ],
      "name": "QuestChainInit",
      "type": "event"
    },
    {
      "anonymous": false,
      "inputs": [
        {
          "indexed": false,
          "internalType": "string",
          "name": "tokenURI",
          "type": "string"
        }
      ],
      "name": "QuestChainTokenURIUpdated",
      "type": "event"
    },
    {
      "anonymous": false,
      "inputs": [
        {
          "indexed": false,
          "internalType": "address",
          "name": "reviewer",
          "type": "address"
        },
        {
          "indexed": false,
          "internalType": "address[]",
          "name": "questerList",
          "type": "address[]"
        },
        {
          "indexed": false,
          "internalType": "uint256[]",
          "name": "questIdList",
          "type": "uint256[]"
        },
        {
          "indexed": false,
          "internalType": "bool[]",
          "name": "successList",
          "type": "bool[]"
        },
        {
          "indexed": false,
          "internalType": "string[]",
          "name": "detailsList",
          "type": "string[]"
        }
      ],
      "name": "QuestProofsReviewed",
      "type": "event"
    },
    {
      "anonymous": false,
      "inputs": [
        {
          "indexed": false,
          "internalType": "address",
          "name": "quester",
          "type": "address"
        },
        {
          "indexed": false,
          "internalType": "uint256[]",
          "name": "questIdList",
          "type": "uint256[]"
        },
        {
          "indexed": false,
          "internalType": "string[]",
          "name": "proofList",
          "type": "string[]"
        }
      ],
      "name": "QuestProofsSubmitted",
      "type": "event"
    },
    {
      "anonymous": false,
      "inputs": [
        {
          "indexed": false,
          "internalType": "address",
          "name": "creator",
          "type": "address"
        },
        {
          "indexed": false,
          "internalType": "uint256[]",
          "name": "questIdList",
          "type": "uint256[]"
        },
        {
          "indexed": false,
          "internalType": "string[]",
          "name": "detailsList",
          "type": "string[]"
        }
      ],
      "name": "QuestsCreated",
      "type": "event"
    },
    {
      "anonymous": false,
      "inputs": [
        {
          "indexed": false,
          "internalType": "address",
          "name": "editor",
          "type": "address"
        },
        {
          "indexed": false,
          "internalType": "uint256[]",
          "name": "questIdList",
          "type": "uint256[]"
        },
        {
          "indexed": false,
          "internalType": "string[]",
          "name": "detailsList",
          "type": "string[]"
        }
      ],
      "name": "QuestsEdited",
      "type": "event"
    },
    {
      "anonymous": false,
      "inputs": [
        {
          "indexed": false,
          "internalType": "address",
          "name": "editor",
          "type": "address"
        },
        {
          "indexed": false,
          "internalType": "uint256[]",
          "name": "questIdList",
          "type": "uint256[]"
        },
        {
          "indexed": false,
          "internalType": "bool[]",
          "name": "pausedList",
          "type": "bool[]"
        }
      ],
      "name": "QuestsPaused",
      "type": "event"
    },
    {
      "anonymous": false,
      "inputs": [
        {
          "indexed": true,
          "internalType": "bytes32",
          "name": "role",
          "type": "bytes32"
        },
        {
          "indexed": true,
          "internalType": "bytes32",
          "name": "previousAdminRole",
          "type": "bytes32"
        },
        {
          "indexed": true,
          "internalType": "bytes32",
          "name": "newAdminRole",
          "type": "bytes32"
        }
      ],
      "name": "RoleAdminChanged",
      "type": "event"
    },
    {
      "anonymous": false,
      "inputs": [
        {
          "indexed": true,
          "internalType": "bytes32",
          "name": "role",
          "type": "bytes32"
        },
        {
          "indexed": true,
          "internalType": "address",
          "name": "account",
          "type": "address"
        },
        {
          "indexed": true,
          "internalType": "address",
          "name": "sender",
          "type": "address"
        }
      ],
      "name": "RoleGranted",
      "type": "event"
    },
    {
      "anonymous": false,
      "inputs": [
        {
          "indexed": true,
          "internalType": "bytes32",
          "name": "role",
          "type": "bytes32"
        },
        {
          "indexed": true,
          "internalType": "address",
          "name": "account",
          "type": "address"
        },
        {
          "indexed": true,
          "internalType": "address",
          "name": "sender",
          "type": "address"
        }
      ],
      "name": "RoleRevoked",
      "type": "event"
    },
    {
      "anonymous": false,
      "inputs": [
        {
          "indexed": false,
          "internalType": "address",
          "name": "account",
          "type": "address"
        }
      ],
      "name": "Unpaused",
      "type": "event"
    },
    {
      "inputs": [],
      "name": "ADMIN_ROLE",
      "outputs": [
        {
          "internalType": "bytes32",
          "name": "",
          "type": "bytes32"
        }
      ],
      "stateMutability": "view",
      "type": "function"
    },
    {
      "inputs": [],
      "name": "DEFAULT_ADMIN_ROLE",
      "outputs": [
        {
          "internalType": "bytes32",
          "name": "",
          "type": "bytes32"
        }
      ],
      "stateMutability": "view",
      "type": "function"
    },
    {
      "inputs": [],
      "name": "EDITOR_ROLE",
      "outputs": [
        {
          "internalType": "bytes32",
          "name": "",
          "type": "bytes32"
        }
      ],
      "stateMutability": "view",
      "type": "function"
    },
    {
      "inputs": [],
      "name": "OWNER_ROLE",
      "outputs": [
        {
          "internalType": "bytes32",
          "name": "",
          "type": "bytes32"
        }
      ],
      "stateMutability": "view",
      "type": "function"
    },
    {
      "inputs": [],
      "name": "REVIEWER_ROLE",
      "outputs": [
        {
          "internalType": "bytes32",
          "name": "",
          "type": "bytes32"
        }
      ],
      "stateMutability": "view",
      "type": "function"
    },
    {
      "inputs": [],
      "name": "burnToken",
      "outputs": [],
      "stateMutability": "nonpayable",
      "type": "function"
    },
    {
      "inputs": [
        {
          "internalType": "string[]",
          "name": "_detailsList",
          "type": "string[]"
        }
      ],
      "name": "createQuests",
      "outputs": [],
      "stateMutability": "nonpayable",
      "type": "function"
    },
    {
      "inputs": [
        {
          "internalType": "string",
          "name": "_details",
          "type": "string"
        }
      ],
      "name": "edit",
      "outputs": [],
      "stateMutability": "nonpayable",
      "type": "function"
    },
    {
      "inputs": [
        {
          "internalType": "uint256[]",
          "name": "_questIdList",
          "type": "uint256[]"
        },
        {
          "internalType": "string[]",
          "name": "_detailsList",
          "type": "string[]"
        }
      ],
      "name": "editQuests",
      "outputs": [],
      "stateMutability": "nonpayable",
      "type": "function"
    },
    {
      "inputs": [
        {
          "internalType": "bytes32",
          "name": "role",
          "type": "bytes32"
        }
      ],
      "name": "getRoleAdmin",
      "outputs": [
        {
          "internalType": "bytes32",
          "name": "",
          "type": "bytes32"
        }
      ],
      "stateMutability": "view",
      "type": "function"
    },
    {
      "inputs": [],
      "name": "getTokenURI",
      "outputs": [
        {
          "internalType": "string",
          "name": "",
          "type": "string"
        }
      ],
      "stateMutability": "view",
      "type": "function"
    },
    {
      "inputs": [
        {
          "internalType": "bytes32",
          "name": "role",
          "type": "bytes32"
        },
        {
          "internalType": "address",
          "name": "account",
          "type": "address"
        }
      ],
      "name": "grantRole",
      "outputs": [],
      "stateMutability": "nonpayable",
      "type": "function"
    },
    {
      "inputs": [
        {
          "internalType": "bytes32",
          "name": "role",
          "type": "bytes32"
        },
        {
          "internalType": "address",
          "name": "account",
          "type": "address"
        }
      ],
      "name": "hasRole",
      "outputs": [
        {
          "internalType": "bool",
          "name": "",
          "type": "bool"
        }
      ],
      "stateMutability": "view",
      "type": "function"
    },
    {
      "inputs": [
        {
          "components": [
            {
              "internalType": "address[]",
              "name": "owners",
              "type": "address[]"
            },
            {
              "internalType": "address[]",
              "name": "admins",
              "type": "address[]"
            },
            {
              "internalType": "address[]",
              "name": "editors",
              "type": "address[]"
            },
            {
              "internalType": "address[]",
              "name": "reviewers",
              "type": "address[]"
            },
            {
              "internalType": "string[]",
              "name": "quests",
              "type": "string[]"
            },
            {
              "internalType": "bool",
              "name": "paused",
              "type": "bool"
            },
            {
              "internalType": "string",
              "name": "details",
              "type": "string"
            },
            {
              "internalType": "string",
              "name": "tokenURI",
              "type": "string"
            }
          ],
          "internalType": "struct QuestChainCommons.QuestChainInfo",
          "name": "_info",
          "type": "tuple"
        }
      ],
      "name": "init",
      "outputs": [],
      "stateMutability": "nonpayable",
      "type": "function"
    },
    {
      "inputs": [],
      "name": "mintToken",
      "outputs": [],
      "stateMutability": "nonpayable",
      "type": "function"
    },
    {
      "inputs": [],
      "name": "pause",
      "outputs": [],
      "stateMutability": "nonpayable",
      "type": "function"
    },
    {
      "inputs": [
        {
          "internalType": "uint256[]",
          "name": "_questIdList",
          "type": "uint256[]"
        },
        {
          "internalType": "bool[]",
          "name": "_pausedList",
          "type": "bool[]"
        }
      ],
      "name": "pauseQuests",
      "outputs": [],
      "stateMutability": "nonpayable",
      "type": "function"
    },
    {
      "inputs": [],
      "name": "paused",
      "outputs": [
        {
          "internalType": "bool",
          "name": "",
          "type": "bool"
        }
      ],
      "stateMutability": "view",
      "type": "function"
    },
    {
      "inputs": [],
      "name": "premium",
      "outputs": [
        {
          "internalType": "bool",
          "name": "",
          "type": "bool"
        }
      ],
      "stateMutability": "view",
      "type": "function"
    },
    {
      "inputs": [],
      "name": "questChainFactory",
      "outputs": [
        {
          "internalType": "contract IQuestChainFactory",
          "name": "",
          "type": "address"
        }
      ],
      "stateMutability": "view",
      "type": "function"
    },
    {
      "inputs": [],
      "name": "questChainId",
      "outputs": [
        {
          "internalType": "uint256",
          "name": "",
          "type": "uint256"
        }
      ],
      "stateMutability": "view",
      "type": "function"
    },
    {
      "inputs": [],
      "name": "questChainToken",
      "outputs": [
        {
          "internalType": "contract IQuestChainToken",
          "name": "",
          "type": "address"
        }
      ],
      "stateMutability": "view",
      "type": "function"
    },
    {
      "inputs": [],
      "name": "questCount",
      "outputs": [
        {
          "internalType": "uint256",
          "name": "",
          "type": "uint256"
        }
      ],
      "stateMutability": "view",
      "type": "function"
    },
    {
      "inputs": [
        {
          "internalType": "uint256",
          "name": "",
          "type": "uint256"
        }
      ],
      "name": "questPaused",
      "outputs": [
        {
          "internalType": "bool",
          "name": "",
          "type": "bool"
        }
      ],
      "stateMutability": "view",
      "type": "function"
    },
    {
      "inputs": [
        {
          "internalType": "address",
          "name": "_quester",
          "type": "address"
        },
        {
          "internalType": "uint256",
          "name": "_questId",
          "type": "uint256"
        }
      ],
      "name": "questStatus",
      "outputs": [
        {
          "internalType": "enum IQuestChain.Status",
          "name": "status",
          "type": "uint8"
        }
      ],
      "stateMutability": "view",
      "type": "function"
    },
    {
      "inputs": [
        {
          "internalType": "bytes32",
          "name": "role",
          "type": "bytes32"
        },
        {
          "internalType": "address",
          "name": "account",
          "type": "address"
        }
      ],
      "name": "renounceRole",
      "outputs": [],
      "stateMutability": "nonpayable",
      "type": "function"
    },
    {
      "inputs": [
        {
          "internalType": "address[]",
          "name": "_questerList",
          "type": "address[]"
        },
        {
          "internalType": "uint256[]",
          "name": "_questIdList",
          "type": "uint256[]"
        },
        {
          "internalType": "bool[]",
          "name": "_successList",
          "type": "bool[]"
        },
        {
          "internalType": "string[]",
          "name": "_detailsList",
          "type": "string[]"
        }
      ],
      "name": "reviewProofs",
      "outputs": [],
      "stateMutability": "nonpayable",
      "type": "function"
    },
    {
      "inputs": [
        {
          "internalType": "bytes32",
          "name": "role",
          "type": "bytes32"
        },
        {
          "internalType": "address",
          "name": "account",
          "type": "address"
        }
      ],
      "name": "revokeRole",
      "outputs": [],
      "stateMutability": "nonpayable",
      "type": "function"
    },
    {
      "inputs": [
        {
          "internalType": "string",
          "name": "_tokenURI",
          "type": "string"
        }
      ],
      "name": "setTokenURI",
      "outputs": [],
      "stateMutability": "nonpayable",
      "type": "function"
    },
    {
      "inputs": [
        {
          "internalType": "uint256[]",
          "name": "_questIdList",
          "type": "uint256[]"
        },
        {
          "internalType": "string[]",
          "name": "_proofList",
          "type": "string[]"
        }
      ],
      "name": "submitProofs",
      "outputs": [],
      "stateMutability": "nonpayable",
      "type": "function"
    },
    {
      "inputs": [
        {
          "internalType": "bytes4",
          "name": "interfaceId",
          "type": "bytes4"
        }
      ],
      "name": "supportsInterface",
      "outputs": [
        {
          "internalType": "bool",
          "name": "",
          "type": "bool"
        }
      ],
      "stateMutability": "view",
      "type": "function"
    },
    {
      "inputs": [],
      "name": "unpause",
      "outputs": [],
      "stateMutability": "nonpayable",
      "type": "function"
    },
    {
      "inputs": [],
      "name": "upgrade",
      "outputs": [],
      "stateMutability": "nonpayable",
      "type": "function"
    }
  ],
  "bytecode": "0x60806040523480156200001157600080fd5b5060016000819055805462ff0000191690819055610100900460ff16158080156200004057506001805460ff16105b806200006f57506200005d306200014760201b620014cf1760201c565b1580156200006f57506001805460ff16145b620000d75760405162461bcd60e51b815260206004820152602e60248201527f496e697469616c697a61626c653a20636f6e747261637420697320616c72656160448201526d191e481a5b9a5d1a585b1a5e995960921b606482015260840160405180910390fd5b6001805460ff1916811790558015620000fa576001805461ff0019166101001790555b801562000140576001805461ff00191681556040519081527f7f26b83ff96e1f2b6a682f133852f6798a09c465da95921460cefb38474024989060200160405180910390a15b5062000156565b6001600160a01b03163b151590565b6128a980620001666000396000f3fe608060405234801561001057600080fd5b50600436106101fb5760003560e01c8063723c05351161011a578063bca834cd116100ad578063e0a73a931161007c578063e0a73a931461043e578063e0df5b6f1461044b578063e58378bb146103cb578063f5f3af721461045e578063faa0a2641461047157600080fd5b8063bca834cd146103fb578063d4a191161461040e578063d547741f14610423578063d55ec6971461043657600080fd5b806392857087116100e957806392857087146103b8578063a217fddf146103cb578063a853211a146103d3578063aea8ad2b146103e857600080fd5b8063723c05351461036857806375b238fc146103885780638456cb591461039d57806391d14854146103a557600080fd5b80632f2ff15d116101925780633b129a56116101615780633b129a56146103275780633f4ba83a1461033c57806358853ead146103445780635c975abb1461035757600080fd5b80632f2ff15d146102ef5780633039b9a11461030257806336568abe1461030b5780633970ab431461031e57600080fd5b80630d66f596116101ce5780630d66f596146102735780632004ffd9146102a3578063248a9ca3146102ab57806329538def146102dc57600080fd5b806301ffc9a7146102005780630572902c14610228578063070e88361461024b578063096ef17514610260575b600080fd5b61021361020e366004611d57565b610479565b60405190151581526020015b60405180910390f35b610213610236366004611d81565b60076020526000908152604090205460ff1681565b61025e610259366004611d9a565b6104b0565b005b61025e61026e366004611e20565b610a0e565b60035461028b9061010090046001600160a01b031681565b6040516001600160a01b03909116815260200161021f565b61025e610b0c565b6102ce6102b9366004611d81565b60009081526002602052604090206001015490565b60405190815260200161021f565b60045461028b906001600160a01b031681565b61025e6102fd366004611e76565b610c8d565b6102ce60055481565b61025e610319366004611e76565b610d2e565b6102ce60065481565b6102ce60008051602061281483398151915281565b61025e610da8565b61025e610352366004611ea6565b610dcb565b60015462010000900460ff16610213565b61037b610376366004611f69565b610eef565b60405161021f9190611fab565b6102ce60008051602061285483398151915281565b61025e610f3f565b6102136103b3366004611e76565b610f5f565b61025e6103c6366004611fd3565b610f8a565b6102ce600081565b6102ce60008051602061283483398151915281565b61025e6103f6366004612044565b610fe2565b61025e610409366004612044565b611085565b610416611141565b60405161021f91906120ff565b61025e610431366004611e76565b6111bb565b61025e61125a565b6003546102139060ff1681565b61025e61045936600461217f565b611324565b61025e61046c366004612044565b61139c565b61025e611492565b60006001600160e01b03198216637965db0b60e01b14806104aa57506301ffc9a760e01b6001600160e01b03198316145b92915050565b600154610100900460ff16158080156104cd57506001805460ff16105b806104e65750303b1580156104e657506001805460ff16145b61054e5760405162461bcd60e51b815260206004820152602e60248201527f496e697469616c697a61626c653a20636f6e747261637420697320616c72656160448201526d191e481a5b9a5d1a585b1a5e995960921b60648201526084015b60405180910390fd5b6001805460ff1916811790558015610570576001805461ff0019166101001790555b60038054610100338102610100600160a81b03199092169190911791829055604080516329538def60e01b81529051919092046001600160a01b0316916329538def9160048083019260209291908290030181865afa1580156105d7573d6000803e3d6000fd5b505050506040513d601f19601f820116820180604052508101906105fb91906121fe565b600480546001600160a01b0319166001600160a01b0392831617815560035460408051630254a95960e01b8152905161010090920490931692630254a95992818101926020929091908290030181865afa15801561065d573d6000803e3d6000fd5b505050506040513d601f19601f82011682018060405250810190610681919061221b565b60055561069d60008051602061285483398151915260006114de565b6106c36000805160206128348339815191526000805160206128548339815191526114de565b6106e96000805160206128148339815191526000805160206128548339815191526114de565b6107336106f960e0840184612234565b8080601f01602080910402602001604051908101604052809392919081815260200183838082843760009201919091525061152992505050565b60005b610740838061227a565b90508110156107e8576107826000610758858061227a565b84818110610768576107686122c3565b905060200201602081019061077d91906122d9565b6115c8565b61079e600080516020612854833981519152610758858061227a565b6107ba600080516020612834833981519152610758858061227a565b6107d6600080516020612814833981519152610758858061227a565b6107e181600161230c565b9050610736565b5060005b6107f9602084018461227a565b905081101561087157610821600080516020612854833981519152610758602086018661227a565b610840600080516020612834833981519152610758602086018661227a565b61085f600080516020612814833981519152610758602086018661227a565b61086a81600161230c565b90506107ec565b5060005b610882604084018461227a565b90508110156108db576108aa600080516020612834833981519152610758604086018661227a565b6108c9600080516020612814833981519152610758604086018661227a565b6108d481600161230c565b9050610875565b5060005b6108ec606084018461227a565b905081101561092657610914600080516020612814833981519152610758606086018661227a565b61091f81600161230c565b90506108df565b50610934608083018361227a565b600654610941925061230c565b60065561095460c0830160a08401612334565b156109615761096161164e565b7fb22b6d3ba699862d93cbd674b13000ba01ec36002a43507beb52acc8e41d0bb061098f60c0840184612234565b61099c608086018661227a565b6109ac60c0880160a08901612334565b6040516109bd959493929190612409565b60405180910390a18015610a0a576001805461ff00191681556040519081527f7f26b83ff96e1f2b6a682f133852f6798a09c465da95921460cefb38474024989060200160405180910390a15b5050565b600080516020612834833981519152610a26816116ac565b60065482906000826001600160401b03811115610a4557610a45612112565b604051908082528060200260200182016040528015610a6e578160200160208202803683370190505b50905060005b83811015610aab57610a86818461230c565b828281518110610a9857610a986122c3565b6020908102919091010152600101610a74565b508585905060066000828254610ac1919061230c565b909155507fedee852218cea067763c965716df20fecc7452da915e5195d0632af6ecfeb42c905033828888604051610afc9493929190612445565b60405180910390a1505050505050565b6006543390610b5d5760405162461bcd60e51b815260206004820152601b60248201527f5175657374436861696e3a206e6f2071756573747320666f756e6400000000006044820152606401610545565b60005b600654811015610c1c5760008181526007602052604090205460ff1680610bbe575060026001600160a01b038316600090815260086020908152604080832085845290915290205460ff166003811115610bbc57610bbc611f95565b145b610c0a5760405162461bcd60e51b815260206004820152601c60248201527f5175657374436861696e3a20636861696e20696e636f6d706c657465000000006044820152606401610545565b610c1581600161230c565b9050610b60565b50600480546005546040516340c10f1960e01b81526001600160a01b038581169482019490945260248101919091529116906340c10f19906044015b600060405180830381600087803b158015610c7257600080fd5b505af1158015610c86573d6000803e3d6000fd5b5050505050565b600082815260026020526040902060010154610ca8816116ac565b610cb283836115c8565b82610cd457610ccf60008051602061285483398151915283610c8d565b505050565b6000805160206128548339815191528303610d0157610ccf60008051602061283483398151915283610c8d565b6000805160206128348339815191528303610ccf57610ccf60008051602061281483398151915283610c8d565b6001600160a01b0381163314610d9e5760405162461bcd60e51b815260206004820152602f60248201527f416363657373436f6e74726f6c3a2063616e206f6e6c792072656e6f756e636560448201526e103937b632b9903337b91039b2b63360891b6064820152608401610545565b610a0a82826116b6565b600080516020612854833981519152610dc0816116ac565b610dc861171d565b50565b600080516020612814833981519152610de3816116ac565b878681148015610df257508085145b8015610dfd57508083145b610e195760405162461bcd60e51b8152600401610545906124b0565b60005b81811015610e9b57610e938b8b83818110610e3957610e396122c3565b9050602002016020810190610e4e91906122d9565b8a8a84818110610e6057610e606122c3565b90506020020135898985818110610e7957610e796122c3565b9050602002016020810190610e8e9190612334565b611758565b600101610e1c565b507fa44f4731b79226adb98d9bdc9b58ad2249721e00c4888fddc4d37436029c1cda338b8b8b8b8b8b8b8b604051610edb99989796959493929190612559565b60405180910390a150505050505050505050565b6000816006548110610f135760405162461bcd60e51b8152600401610545906125f9565b50506001600160a01b039091166000908152600860209081526040808320938352929052205460ff1690565b600080516020612854833981519152610f57816116ac565b610dc861164e565b60009182526002602090815260408084206001600160a01b0393909316845291905290205460ff1690565b600080516020612854833981519152610fa2816116ac565b7f16e4330852b4bc2323e9612fedd2b6f0bb12cc9de8eb1b1e65e79fc5d4873f21338484604051610fd593929190612630565b60405180910390a1505050565b610fea611858565b8281811461100a5760405162461bcd60e51b8152600401610545906124b0565b60005b8181101561103e5761103686868381811061102a5761102a6122c3565b905060200201356118a6565b60010161100d565b507f19eeef19a0e74691a24fe2467a93d053b6c34c71aa35860c3e26831f7c5d42c9338686868660405161107695949392919061265e565b60405180910390a15050505050565b60008051602061283483398151915261109d816116ac565b838281146110bd5760405162461bcd60e51b8152600401610545906124b0565b60005b81811015611109576006548787838181106110dd576110dd6122c3565b90506020020135106111015760405162461bcd60e51b8152600401610545906125f9565b6001016110c0565b507f4a84fd725719f655693f567a636b9ef15d0d7a26cb097a8ca8afeef5b180f01f3387878787604051610afc95949392919061265e565b600480546005546040516303a24d0760e21b8152928301526060916001600160a01b0390911690630e89341c90602401600060405180830381865afa15801561118e573d6000803e3d6000fd5b505050506040513d6000823e601f3d908101601f191682016040526111b691908101906126a2565b905090565b6000828152600260205260409020600101546111d6816116ac565b6111e083836116b6565b600080516020612814833981519152830361120d57610ccf600080516020612834833981519152836111bb565b600080516020612834833981519152830361123a57610ccf600080516020612854833981519152836111bb565b6000805160206128548339815191528303610ccf57610ccf6000836111bb565b60035461010090046001600160a01b0316336001600160a01b0316146112c25760405162461bcd60e51b815260206004820152601760248201527f5175657374436861696e3a206e6f7420666163746f72790000000000000000006044820152606401610545565b60035460ff16156113155760405162461bcd60e51b815260206004820152601c60248201527f5175657374436861696e3a20616c7265616479207570677261646564000000006044820152606401610545565b6003805460ff19166001179055565b60008051602061285483398151915261133c816116ac565b60035460ff1615156001146113935760405162461bcd60e51b815260206004820152601760248201527f5175657374436861696e3a206e6f74207072656d69756d0000000000000000006044820152606401610545565b610a0a82611529565b6000805160206128348339815191526113b4816116ac565b838281146113d45760405162461bcd60e51b8152600401610545906124b0565b60005b8181101561145a578484828181106113f1576113f16122c3565b90506020020160208101906114069190612334565b156114315761142c878783818110611420576114206122c3565b905060200201356119cb565b611452565b611452878783818110611446576114466122c3565b90506020020135611a66565b6001016113d7565b507f3ef65d1c1f8ffdd5737bb7543700db6e0e1193e115534bdfe88d4ccdd9d7a3c03387878787604051610afc95949392919061270f565b60048054600554604051632770a7eb60e21b81523393810184905260248101919091526001600160a01b0390911690639dc29fac90604401610c58565b6001600160a01b03163b151590565b600082815260026020526040808220600101805490849055905190918391839186917fbd79b86ffe0ab8e8776151514217cd7cacd52c909f66475c3af44e129f0b00ff9190a4505050565b60048054600554604051630588253160e21b81526001600160a01b039092169263162094c49261155c9291869101612747565b600060405180830381600087803b15801561157657600080fd5b505af115801561158a573d6000803e3d6000fd5b505050507fd219d593b6adb46a0923918e69fbb20616170f633046c791d42dbce88a6ef1c8816040516115bd91906120ff565b60405180910390a150565b6115d28282610f5f565b610a0a5760008281526002602090815260408083206001600160a01b03851684529091529020805460ff1916600117905561160a3390565b6001600160a01b0316816001600160a01b0316837f2f8788117e7eff1d82e926ec794901d17c78024a50270940304540a733656f0d60405160405180910390a45050565b611656611858565b6001805462ff00001916620100001790557f62e78cea01bee320cd4e420270b5ea74000d11b0c9f74754ebdbfc544b05a25861168f3390565b6040516001600160a01b03909116815260200160405180910390a1565b610dc88133611b02565b6116c08282610f5f565b15610a0a5760008281526002602090815260408083206001600160a01b0385168085529252808320805460ff1916905551339285917ff6391f5c32d9c69d2a47ea670b442974b53935d1edc7fd64eb21e047a839171b9190a45050565b611725611b66565b6001805462ff0000191690557f5db9ee0a495bf2e6ff9c91a7834c1ba4fdd244a5e8aa4e537bd38aeae4b073aa3361168f565b81600654811061177a5760405162461bcd60e51b8152600401610545906125f9565b60016001600160a01b038516600090815260086020908152604080832087845290915290205460ff1660038111156117b4576117b4611f95565b146118015760405162461bcd60e51b815260206004820152601f60248201527f5175657374436861696e3a207175657374206e6f7420696e20726576696577006044820152606401610545565b8161180d576003611810565b60025b6001600160a01b03851660009081526008602090815260408083208784529091529020805460ff1916600183600381111561184d5761184d611f95565b021790555050505050565b60015462010000900460ff16156118a45760405162461bcd60e51b815260206004820152601060248201526f14185d5cd8589b194e881c185d5cd95960821b6044820152606401610545565b565b600081815260076020526040902054819060ff16156119025760405162461bcd60e51b8152602060048201526018602482015277145d595cdd10da185a5b8e881c5d595cdd081c185d5cd95960421b6044820152606401610545565b8160065481106119245760405162461bcd60e51b8152600401610545906125f9565b33600090815260086020908152604080832086845290915290205460029060ff16600381111561195657611956611f95565b036119a35760405162461bcd60e51b815260206004820152601a60248201527f5175657374436861696e3a20616c7265616479207061737365640000000000006044820152606401610545565b505033600090815260086020908152604080832093835292905220805460ff19166001179055565b8060065481106119ed5760405162461bcd60e51b8152600401610545906125f9565b600082815260076020526040902054829060ff1615611a495760405162461bcd60e51b8152602060048201526018602482015277145d595cdd10da185a5b8e881c5d595cdd081c185d5cd95960421b6044820152606401610545565b50506000908152600760205260409020805460ff19166001179055565b806006548110611a885760405162461bcd60e51b8152600401610545906125f9565b600082815260076020526040902054829060ff16611ae85760405162461bcd60e51b815260206004820152601c60248201527f5175657374436861696e3a207175657374206e6f7420706175736564000000006044820152606401610545565b50506000908152600760205260409020805460ff19169055565b611b0c8282610f5f565b610a0a57611b24816001600160a01b03166014611bb5565b611b2f836020611bb5565b604051602001611b40929190612768565b60408051601f198184030181529082905262461bcd60e51b8252610545916004016120ff565b60015462010000900460ff166118a45760405162461bcd60e51b815260206004820152601460248201527314185d5cd8589b194e881b9bdd081c185d5cd95960621b6044820152606401610545565b60606000611bc48360026127dd565b611bcf90600261230c565b6001600160401b03811115611be657611be6612112565b6040519080825280601f01601f191660200182016040528015611c10576020820181803683370190505b509050600360fc1b81600081518110611c2b57611c2b6122c3565b60200101906001600160f81b031916908160001a905350600f60fb1b81600181518110611c5a57611c5a6122c3565b60200101906001600160f81b031916908160001a9053506000611c7e8460026127dd565b611c8990600161230c565b90505b6001811115611d01576f181899199a1a9b1b9c1cb0b131b232b360811b85600f1660108110611cbd57611cbd6122c3565b1a60f81b828281518110611cd357611cd36122c3565b60200101906001600160f81b031916908160001a90535060049490941c93611cfa816127fc565b9050611c8c565b508315611d505760405162461bcd60e51b815260206004820181905260248201527f537472696e67733a20686578206c656e67746820696e73756666696369656e746044820152606401610545565b9392505050565b600060208284031215611d6957600080fd5b81356001600160e01b031981168114611d5057600080fd5b600060208284031215611d9357600080fd5b5035919050565b600060208284031215611dac57600080fd5b81356001600160401b03811115611dc257600080fd5b82016101008185031215611d5057600080fd5b60008083601f840112611de757600080fd5b5081356001600160401b03811115611dfe57600080fd5b6020830191508360208260051b8501011115611e1957600080fd5b9250929050565b60008060208385031215611e3357600080fd5b82356001600160401b03811115611e4957600080fd5b611e5585828601611dd5565b90969095509350505050565b6001600160a01b0381168114610dc857600080fd5b60008060408385031215611e8957600080fd5b823591506020830135611e9b81611e61565b809150509250929050565b6000806000806000806000806080898b031215611ec257600080fd5b88356001600160401b0380821115611ed957600080fd5b611ee58c838d01611dd5565b909a50985060208b0135915080821115611efe57600080fd5b611f0a8c838d01611dd5565b909850965060408b0135915080821115611f2357600080fd5b611f2f8c838d01611dd5565b909650945060608b0135915080821115611f4857600080fd5b50611f558b828c01611dd5565b999c989b5096995094979396929594505050565b60008060408385031215611f7c57600080fd5b8235611f8781611e61565b946020939093013593505050565b634e487b7160e01b600052602160045260246000fd5b6020810160048310611fcd57634e487b7160e01b600052602160045260246000fd5b91905290565b60008060208385031215611fe657600080fd5b82356001600160401b0380821115611ffd57600080fd5b818501915085601f83011261201157600080fd5b81358181111561202057600080fd5b86602082850101111561203257600080fd5b60209290920196919550909350505050565b6000806000806040858703121561205a57600080fd5b84356001600160401b038082111561207157600080fd5b61207d88838901611dd5565b9096509450602087013591508082111561209657600080fd5b506120a387828801611dd5565b95989497509550505050565b60005b838110156120ca5781810151838201526020016120b2565b50506000910152565b600081518084526120eb8160208601602086016120af565b601f01601f19169290920160200192915050565b602081526000611d5060208301846120d3565b634e487b7160e01b600052604160045260246000fd5b604051601f8201601f191681016001600160401b038111828210171561215057612150612112565b604052919050565b60006001600160401b0382111561217157612171612112565b50601f01601f191660200190565b60006020828403121561219157600080fd5b81356001600160401b038111156121a757600080fd5b8201601f810184136121b857600080fd5b80356121cb6121c682612158565b612128565b8181528560208385010111156121e057600080fd5b81602084016020830137600091810160200191909152949350505050565b60006020828403121561221057600080fd5b8151611d5081611e61565b60006020828403121561222d57600080fd5b5051919050565b6000808335601e1984360301811261224b57600080fd5b8301803591506001600160401b0382111561226557600080fd5b602001915036819003821315611e1957600080fd5b6000808335601e1984360301811261229157600080fd5b8301803591506001600160401b038211156122ab57600080fd5b6020019150600581901b3603821315611e1957600080fd5b634e487b7160e01b600052603260045260246000fd5b6000602082840312156122eb57600080fd5b8135611d5081611e61565b634e487b7160e01b600052601160045260246000fd5b808201808211156104aa576104aa6122f6565b8035801515811461232f57600080fd5b919050565b60006020828403121561234657600080fd5b611d508261231f565b81835281816020850137506000828201602090810191909152601f909101601f19169091010190565b81835260006020808501808196508560051b810191508460005b878110156123fc5782840389528135601e198836030181126123b357600080fd5b870185810190356001600160401b038111156123ce57600080fd5b8036038213156123dd57600080fd5b6123e886828461234f565b9a87019a9550505090840190600101612392565b5091979650505050505050565b60608152600061241d60608301878961234f565b8281036020840152612430818688612378565b91505082151560408301529695505050505050565b6001600160a01b038516815260606020808301829052855191830182905260009186820191906080850190845b8181101561248e57845183529383019391830191600101612472565b505084810360408601526124a3818789612378565b9998505050505050505050565b6020808252601a908201527f5175657374436861696e3a20696e76616c696420706172616d73000000000000604082015260600190565b81835260006001600160fb1b0383111561250057600080fd5b8260051b80836020870137939093016020019392505050565b8183526000602080850194508260005b8581101561254e5761253a8261231f565b151587529582019590820190600101612529565b509495945050505050565b6001600160a01b038a8116825260a060208084018290529083018a90526000918b9160c08501845b8d8110156125a857843561259481611e61565b841682529382019390820190600101612581565b5085810360408701526125bc818c8e6124e7565b935050505082810360608401526125d4818789612519565b905082810360808401526125e9818587612378565b9c9b505050505050505050505050565b6020808252601b908201527f5175657374436861696e3a207175657374206e6f7420666f756e640000000000604082015260600190565b6001600160a01b0384168152604060208201819052600090612655908301848661234f565b95945050505050565b6001600160a01b038616815260606020820181905260009061268390830186886124e7565b8281036040840152612696818587612378565b98975050505050505050565b6000602082840312156126b457600080fd5b81516001600160401b038111156126ca57600080fd5b8201601f810184136126db57600080fd5b80516126e96121c682612158565b8181528560208385010111156126fe57600080fd5b6126558260208301602086016120af565b6001600160a01b038616815260606020820181905260009061273490830186886124e7565b8281036040840152612696818587612519565b82815260406020820152600061276060408301846120d3565b949350505050565b7f416363657373436f6e74726f6c3a206163636f756e74200000000000000000008152600083516127a08160178501602088016120af565b7001034b99036b4b9b9b4b733903937b6329607d1b60179184019182015283516127d18160288401602088016120af565b01602801949350505050565b60008160001904831182151516156127f7576127f76122f6565b500290565b60008161280b5761280b6122f6565b50600019019056fec10c77be35aff266144ed64c26a1fa104bae2f284ae99ac4a34203454704a18521d1167972f621f75904fb065136bc8b53c7ba1c60ccd3a7758fbee465851e9ca49807205ce4d355092ef5a8a18f56e8913cf4a201fbe287825b095693c21775a26469706673582212203b702ca39066b0a168604b79859327777ddcbd5002baffcc68a3c21e679f1c8964736f6c63430008100033",
  "linkReferences": {},
  "deployedLinkReferences": {}
}